:020000040000FA
:1000000001288316031788018901031386018701DC
:10001000880183120330A00086006220860103302D
:10002000A1008700622087010330A20088006220BF
:100030008801051C2620851C3020051D3A20851DC1
:100040004420051E4E20851E582019280310A01993
:100050000314200D0F39A0008600622086010800DD
:10006000031020182016200C0F39A00086006220F3
:10007000860108000310A1190314210D0F39A100F6
:100080008700622087010800031021182116210C27
:100090000F39A10087006220870108000310A21910
:1000A0000314220D0F39A200880062208801080085
:1000B000031022182216220C0F39A2008800622099
:1000C000880108000830A300A40100000000A40B70
:0800D0006528A30B6428080059
:00000001FF
