:020000003F2897
:0E0006008312031321088A00200882000800DC
:0E001400073083120313FD00FD0B0E280800B9
:10002200C330831203139F05C0309F002408F000E1
:10003200F00D7010F00D701070089F0483169F175A
:1000420083121F140A209F149F1C292800002528B0
:100052001F101E08F100F00183161E08F004003084
:04006200F10408009D
:1000660003208A110A128000840AA00A0319A10A31
:08007600F003031D332808000C
:10007E0004308316031788008901FF3003138500AF
:10008E008601870183120317871388130230031327
:10009E00A400112070088312A2007108A30070083A
:1000AE0086007108F200F301720887004D285E2861
:04400E00F42400078F
:00000001FF
