:02000000D02806
:0E0006008312031321088A00200882000800DC
:1000140040283F30831203138600C328063086002D
:10002400C3285B308600C3284F308600C32866305F
:100034008600C3286D308600C3287D308600C3281F
:1000440007308600C3287F308600C32867308600C7
:10005400C32877308600C3287C308600C328393013
:100064008600C3285E308600C32879308600C32802
:1000740071308600C32880308600C328831203139E
:1000840000302306031D48280030220603190B28DC
:1000940000302306031D50280130220603191028BE
:1000A40000302306031D58280230220603191328A2
:1000B40000302306031D6028033022060319162886
:1000C40000302306031D682804302206031919286A
:1000D40000302306031D70280530220603191C284E
:1000E40000302306031D78280630220603191F2832
:1000F40000302306031D8028073022060319222816
:1001040000302306031D88280830220603192528F9
:1001140000302306031D90280930220603192828DD
:1001240000302306031D98280A30220603192B28C1
:1001340000302306031DA0280B30220603192E28A5
:1001440000302306031DA8280C3022060319312889
:1001540000302306031DB0280D302206031934286D
:1001640000302306031DB8280E3022060319372851
:1001740000302306031DC0280F30220603193A2835
:040184003D2808000A
:1001880003208A110A128000840AA00A0319A10A0E
:08019800F003031DC428080058
:1001A000FF30831603138500860103178801890138
:1001B000831203130508A200A3010A20D828DF2810
:04400E00F42400078F
:00000001FF
