:020000007E2957
:0E0006008312031321088A00200882000800DC
:100014008312031306140630FB001330FC00AD30CA
:10002400FD00FD0B1328FC0B1328FB0B1328000009
:100034000000061086140630FB001330FC00AD30BF
:10004400FD00FD0B2328FC0B2328FB0B23280000B9
:100054000000861006150630FB001330FC00AD309E
:10006400FD00FD0B3328FC0B3328FB0B3328000069
:100074000000061186150630FB001330FC00AD307D
:10008400FD00FD0B4328FC0B4328FB0B4328000019
:100094000000861106160630FB001330FC00AD305C
:1000A400FD00FD0B5328FC0B5328FB0B53280000C9
:1000B4000000061286160630FB001330FC00AD303B
:1000C400FD00FD0B6328FC0B6328FB0B6328000079
:1000D4000000861206170630FB001330FC00AD301A
:1000E400FD00FD0B7328FC0B7328FB0B7328000029
:1000F4000000061386170630FB001330FC00AD30F9
:10010400FD00FD0B8328FC0B8328FB0B83280000D8
:0601140000008613080044
:10011A008312031306140630FB001330FC00AD30C3
:10012A00FD00FD0B9628FC0B9628FB0B9628000079
:10013A00000086140630FB001330FC00AD30FD00D1
:10014A00FD0BA528FC0BA528FB0BA5280000000029
:10015A0006150630FB001330FC00AD30FD00FD0B28
:10016A00B428FC0BB428FB0BB42800000000861549
:10017A000630FB001330FC00AD30FD00FD0BC32838
:10018A00FC0BC328FB0BC328000000000616063030
:10019A00FB001330FC00AD30FD00FD0BD228FC0B38
:1001AA00D228FB0BD2280000000086160630FB007E
:1001BA001330FC00AD30FD00FD0BE128FC0BE128FB
:1001CA00FB0BE1280000000006170630FB00133085
:1001DA00FC00AD30FD00FD0BF028FC0BF028FB0BFA
:1001EA00F0280000000086170630FB001330FC00E0
:1001FA00AD30FD00FD0BFF28FC0BFF28FB0BFF2891
:10020A000000000006100630FB001330FC00AD3081
:10021A00FD00FD0B0E29FC0B0E29FB0B0E2900001D
:10022A00000086100630FB001330FC00AD30FD00E4
:10023A00FD0B1D29FC0B1D29FB0B1D2900000000CD
:10024A0006110630FB001330FC00AD30FD00FD0B3B
:10025A002C29FC0B2C29FB0B2C29000000008611F1
:10026A000630FB001330FC00AD30FD00FD0B3B29CE
:10027A00FC0B3B29FB0B3B29000000000612063051
:10028A00FB001330FC00AD30FD00FD0B4A29FC0BCE
:10029A004A29FB0B4A290000000086120630FB009F
:1002AA001330FC00AD30FD00FD0B5929FC0B592918
:1002BA00FB0B59290000000006130630FB0013301F
:1002CA00FC00AD30FD00FD0B6829FC0B6829FB0B17
:0A02DA0068290000000086130800E8
:1002E40003208A110A128000840AA00A0319A10AB1
:0802F400F003031D722908004C
:1002FC00FF308316031385008601031788018901DB
:10030C008312031385018601051892292208A40083
:10031C002308A5000A2097292208A4002308A50079
:06032C008D208A299829AA
:04400E00F42400078F
:00000001FF
