:020000040000FA
:1000000001288316031786018801890183120313CF
:1000100000300506031D0F283F30860008280130F8
:100020000506031D1628063086000828023005063E
:10003000031D1D285B308600082803300506031DBC
:1000400024284F308600082804300506031D2B287D
:1000500066308600082805300506031D32286D30FD
:100060008600082806300506031D39287D308600E5
:10007000082807300506031D402807308600082899
:1000800008300506031D47287F3086000828093000
:100090000506031D4E286F30860008280A30050625
:1000A000031D55287730860008280B300506031DF0
:1000B0005C287C30860008280C300506031D632868
:1000C0003930860008280D300506031D6A285E3089
:1000D000860008280E300506031D71287930860039
:1000E00008280F300506031D78287130860008287F
:0600F000803086000828A4
:00000001FF
